{"abi":[{"type":"function","name":"aggregate","inputs":[{"name":"calls","type":"tuple[]","internalType":"struct Multicall3.Call[]","components":[{"name":"target","type":"address","internalType":"address"},{"name":"callData","type":"bytes","internalType":"bytes"}]}],"outputs":[{"name":"blockNumber","type":"uint256","internalType":"uint256"},{"name":"returnData","type":"bytes[]","internalType":"bytes[]"}],"stateMutability":"payable"},{"type":"function","name":"aggregate3","inputs":[{"name":"calls","type":"tuple[]","internalType":"struct Multicall3.Call3[]","components":[{"name":"target","type":"address","internalType":"address"},{"name":"allowFailure","type":"bool","internalType":"bool"},{"name":"callData","type":"bytes","internalType":"bytes"}]}],"outputs":[{"name":"returnData","type":"tuple[]","internalType":"struct Multicall3.Result[]","components":[{"name":"success","type":"bool","internalType":"bool"},{"name":"returnData","type":"bytes","internalType":"bytes"}]}],"stateMutability":"payable"},{"type":"function","name":"aggregate3Value","inputs":[{"name":"calls","type":"tuple[]","internalType":"struct Multicall3.Call3Value[]","components":[{"name":"target","type":"address","internalType":"address"},{"name":"allowFailure","type":"bool","internalType":"bool"},{"name":"value","type":"uint256","internalType":"uint256"},{"name":"callData","type":"bytes","internalType":"bytes"}]}],"outputs":[{"name":"returnData","type":"tuple[]","internalType":"struct Multicall3.Result[]","components":[{"name":"success","type":"bool","internalType":"bool"},{"name":"returnData","type":"bytes","internalType":"bytes"}]}],"stateMutability":"payable"},{"type":"function","name":"blockAndAggregate","inputs":[{"name":"calls","type":"tuple[]","internalType":"struct Multicall3.Call[]","components":[{"name":"target","type":"address","internalType":"address"},{"name":"callData","type":"bytes","internalType":"bytes"}]}],"outputs":[{"name":"blockNumber","type":"uint256","internalType":"uint256"},{"name":"blockHash","type":"bytes32","internalType":"bytes32"},{"name":"returnData","type":"tuple[]","internalType":"struct Multicall3.Result[]","components":[{"name":"success","type":"bool","internalType":"bool"},{"name":"returnData","type":"bytes","internalType":"bytes"}]}],"stateMutability":"payable"},{"type":"function","name":"getBasefee","inputs":[],"outputs":[{"name":"","type":"uint256","internalType":"uint256"}],"stateMutability":"view"},{"type":"function","name":"getBlockHash","inputs":[{"name":"blockNumber","type":"uint256","internalType":"uint256"}],"outputs":[{"name":"","type":"bytes32","internalType":"bytes32"}],"stateMutability":"view"},{"type":"function","name":"getBlockNumber","inputs":[],"outputs":[{"name":"","type":"uint256","internalType":"uint256"}],"stateMutability":"view"},{"type":"function","name":"getChainId","inputs":[],"outputs":[{"name":"","type":"uint256","internalType":"uint256"}],"stateMutability":"view"},{"type":"function","name":"getCurrentBlockCoinbase","inputs":[],"outputs":[{"name":"","type":"address","internalType":"address"}],"stateMutability":"view"},{"type":"function","name":"getCurrentBlockGasLimit","inputs":[],"outputs":[{"name":"","type":"uint256","internalType":"uint256"}],"stateMutability":"view"},{"type":"function","name":"getCurrentBlockTimestamp","inputs":[],"outputs":[{"name":"","type":"uint256","internalType":"uint256"}],"stateMutability":"view"},{"type":"function","name":"getEthBalance","inputs":[{"name":"addr","type":"address","internalType":"address"}],"outputs":[{"name":"","type":"uint256","internalType":"uint256"}],"stateMutability":"view"},{"type":"function","name":"getLastBlockHash","inputs":[],"outputs":[{"name":"","type":"bytes32","internalType":"bytes32"}],"stateMutability":"view"},{"type":"function","name":"tryBlockAndAggregate","inputs":[{"name":"calls","type":"tuple[]","internalType":"struct Multicall3.Call[]","components":[{"name":"target","type":"address","internalType":"address"},{"name":"callData","type":"bytes","internalType":"bytes"}]}],"outputs":[{"name":"blockNumber","type":"uint256","internalType":"uint256"},{"name":"blockHash","type":"bytes32","internalType":"bytes32"},{"name":"returnData","type":"tuple[]","internalType":"struct Multicall3.Result[]","components":[{"name":"success","type":"bool","internalType":"bool"},{"name":"returnData","type":"bytes","internalType":"bytes"}]}],"stateMutability":"payable"}],"bytecode":{"object":"0x608060405234801561000f575f80fd5b50610bac8061001d5f395ff3fe6080604052600436106100d9575f3560e01c80634d2301cc1161007c57806386d516e81161005757806386d516e8146101e5578063a8b0574e146101f7578063c3077fa914610211578063ee82ac5e14610224575f80fd5b80634d2301cc14610189578063696e8cc9146101b057806382ad56cb146101d2575f80fd5b806327e86d6e116100b757806327e86d6e1461013f5780633408e470146101535780633e64a6961461016557806342cbb15c14610177575f80fd5b80630f28c97d146100dd578063174dea71146100fe578063252dba421461011e575b5f80fd5b3480156100e8575f80fd5b50425b6040519081526020015b60405180910390f35b61011161010c3660046108bc565b610242565b6040516100f591906109aa565b61013161012c3660046108bc565b610421565b6040516100f59291906109c3565b34801561014a575f80fd5b506100eb61058f565b34801561015e575f80fd5b50466100eb565b348015610170575f80fd5b50486100eb565b348015610182575f80fd5b50436100eb565b348015610194575f80fd5b506100eb6101a3366004610a2d565b6001600160a01b03163190565b6101c36101be3660046108bc565b6105a1565b6040516100f593929190610a53565b6101116101e03660046108bc565b6106e1565b3480156101f0575f80fd5b50456100eb565b348015610202575f80fd5b506040514181526020016100f5565b6101c361021f3660046108bc565b610858565b34801561022f575f80fd5b506100eb61023e366004610a7a565b4090565b60605f828067ffffffffffffffff81111561025f5761025f610a91565b6040519080825280602002602001820160405280156102a457816020015b604080518082019091525f81526060602082015281526020019060019003908161027d5790505b509250365f5b828110156103c3575f8582815181106102c5576102c5610aa5565b602002602001015190508787838181106102e1576102e1610aa5565b90506020028101906102f39190610ab9565b60408101359586019590935061030c6020850185610a2d565b6001600160a01b0316816103236060870187610ad7565b604051610331929190610b1a565b5f6040518083038185875af1925050503d805f811461036b576040519150601f19603f3d011682016040523d82523d5f602084013e610370565b606091505b50602084015215158083526040850135176103b9576308c379a05f5260208052601760405276135d5b1d1a58d85b1b0cce8818d85b1b0819985a5b1959604a1b6060526064601cfd5b50506001016102aa565b508234146104185760405162461bcd60e51b815260206004820152601a60248201527f4d756c746963616c6c333a2076616c7565206d69736d6174636800000000000060448201526064015b60405180910390fd5b50505092915050565b436060828067ffffffffffffffff81111561043e5761043e610a91565b60405190808252806020026020018201604052801561047157816020015b606081526020019060019003908161045c5790505b509150365f5b82811015610585575f87878381811061049257610492610aa5565b90506020028101906104a49190610b29565b92506104b36020840184610a2d565b6001600160a01b03166104c96020850185610ad7565b6040516104d7929190610b1a565b5f604051808303815f865af19150503d805f8114610510576040519150601f19603f3d011682016040523d82523d5f602084013e610515565b606091505b5086848151811061052857610528610aa5565b602090810291909101015290508061057c5760405162461bcd60e51b8152602060048201526017602482015276135d5b1d1a58d85b1b0cce8818d85b1b0819985a5b1959604a1b604482015260640161040f565b50600101610477565b5050509250929050565b5f61059b600143610b3d565b40905090565b4380406060838067ffffffffffffffff8111156105c0576105c0610a91565b60405190808252806020026020018201604052801561060557816020015b604080518082019091525f8152606060208201528152602001906001900390816105de5790505b509150365f5b828110156106d7575f84828151811061062657610626610aa5565b6020026020010151905088888381811061064257610642610aa5565b90506020028101906106549190610b29565b92506106636020840184610a2d565b6001600160a01b03166106796020850185610ad7565b604051610687929190610b1a565b5f604051808303815f865af19150503d805f81146106c0576040519150601f19603f3d011682016040523d82523d5f602084013e6106c5565b606091505b5060208301521515905260010161060b565b5050509250925092565b6060818067ffffffffffffffff8111156106fd576106fd610a91565b60405190808252806020026020018201604052801561074257816020015b604080518082019091525f81526060602082015281526020019060019003908161071b5790505b509150365f5b82811015610418575f84828151811061076357610763610aa5565b6020026020010151905086868381811061077f5761077f610aa5565b90506020028101906107919190610b62565b92506107a06020840184610a2d565b6001600160a01b03166107b66040850185610ad7565b6040516107c4929190610b1a565b5f604051808303815f865af19150503d805f81146107fd576040519150601f19603f3d011682016040523d82523d5f602084013e610802565b606091505b50602080840191909152901515808352908401351761084f576308c379a05f5260208052601760405276135d5b1d1a58d85b1b0cce8818d85b1b0819985a5b1959604a1b6060526064601cfd5b50600101610748565b5f80606061086685856105a1565b919790965090945092505050565b5f8083601f840112610884575f80fd5b50813567ffffffffffffffff81111561089b575f80fd5b6020830191508360208260051b85010111156108b5575f80fd5b9250929050565b5f80602083850312156108cd575f80fd5b823567ffffffffffffffff8111156108e3575f80fd5b6108ef85828601610874565b90969095509350505050565b5f81518084525f5b8181101561091f57602081850181015186830182015201610903565b505f602082860101526020601f19601f83011685010191505092915050565b5f82825180855260208086019550808260051b8401018186015f5b8481101561099d57858303601f1901895281518051151584528401516040858501819052610989818601836108fb565b9a86019a9450505090830190600101610959565b5090979650505050505050565b602081525f6109bc602083018461093e565b9392505050565b5f6040820184835260206040602085015281855180845260608601915060608160051b8701019350602087015f5b82811015610a1f57605f19888703018452610a0d8683516108fb565b955092840192908401906001016109f1565b509398975050505050505050565b5f60208284031215610a3d575f80fd5b81356001600160a01b03811681146109bc575f80fd5b838152826020820152606060408201525f610a71606083018461093e565b95945050505050565b5f60208284031215610a8a575f80fd5b5035919050565b634e487b7160e01b5f52604160045260245ffd5b634e487b7160e01b5f52603260045260245ffd5b5f8235607e19833603018112610acd575f80fd5b9190910192915050565b5f808335601e19843603018112610aec575f80fd5b83018035915067ffffffffffffffff821115610b06575f80fd5b6020019150368190038213156108b5575f80fd5b818382375f9101908152919050565b5f8235603e19833603018112610acd575f80fd5b81810381811115610b5c57634e487b7160e01b5f52601160045260245ffd5b92915050565b5f8235605e19833603018112610acd575f80fdfea2646970667358221220bb11e950c879af03026e9485e60fd0f26ebc9b2d8a795a7bef9b04a85975460e64736f6c63430008180033","linkReferences":{}},"methodIdentifiers":{"aggregate((address,bytes)[])":"252dba42","aggregate3((address,bool,bytes)[])":"82ad56cb","aggregate3Value((address,bool,uint256,bytes)[])":"174dea71","blockAndAggregate((address,bytes)[])":"c3077fa9","getBasefee()":"3e64a696","getBlockHash(uint256)":"ee82ac5e","getBlockNumber()":"42cbb15c","getChainId()":"3408e470","getCurrentBlockCoinbase()":"a8b0574e","getCurrentBlockGasLimit()":"86d516e8","getCurrentBlockTimestamp()":"0f28c97d","getEthBalance(address)":"4d2301cc","getLastBlockHash()":"27e86d6e","tryBlockAndAggregate((address,bytes)[])":"696e8cc9"},"storageLayout":{"storage":[],"types":{}},"id":0}