{"abi":[{"type":"constructor","inputs":[{"name":"_owners","type":"address[]","internalType":"address[]"},{"name":"_threshold","type":"uint256","internalType":"uint256"}],"stateMutability":"nonpayable"},{"type":"receive","stateMutability":"payable"},{"type":"function","name":"DOMAIN_SEPARATOR","inputs":[],"outputs":[{"name":"","type":"bytes32","internalType":"bytes32"}],"stateMutability":"view"},{"type":"function","name":"addOwner","inputs":[{"name":"owner","type":"address","internalType":"address"},{"name":"_threshold","type":"uint256","internalType":"uint256"}],"outputs":[],"stateMutability":"nonpayable"},{"type":"function","name":"checkSignatures","inputs":[{"name":"dataHash","type":"bytes32","internalType":"bytes32"},{"name":"signatures","type":"bytes","internalType":"bytes"}],"outputs":[],"stateMutability":"view"},{"type":"function","name":"execTransaction","inputs":[{"name":"to","type":"address","internalType":"address"},{"name":"value","type":"uint256","internalType":"uint256"},{"name":"data","type":"bytes","internalType":"bytes"},{"name":"operation","type":"uint256","internalType":"uint256"},{"name":"signatures","type":"bytes","internalType":"bytes"}],"outputs":[{"name":"success","type":"bool","internalType":"bool"}],"stateMutability":"nonpayable"},{"type":"function","name":"getOwners","inputs":[],"outputs":[{"name":"","type":"address[]","internalType":"address[]"}],"stateMutability":"view"},{"type":"function","name":"getTransactionHash","inputs":[{"name":"to","type":"address","internalType":"address"},{"name":"value","type":"uint256","internalType":"uint256"},{"name":"data","type":"bytes","internalType":"bytes"},{"name":"operation","type":"uint256","internalType":"uint256"},{"name":"_nonce","type":"uint256","internalType":"uint256"}],"outputs":[{"name":"","type":"bytes32","internalType":"bytes32"}],"stateMutability":"view"},{"type":"function","name":"isOwner","inputs":[{"name":"","type":"address","internalType":"address"}],"outputs":[{"name":"","type":"bool","internalType":"bool"}],"stateMutability":"view"},{"type":"function","name":"nonce","inputs":[],"outputs":[{"name":"","type":"uint256","internalType":"uint256"}],"stateMutability":"view"},{"type":"function","name":"owners","inputs":[{"name":"","type":"uint256","internalType":"uint256"}],"outputs":[{"name":"","type":"address","internalType":"address"}],"stateMutability":"view"},{"type":"function","name":"removeOwner","inputs":[{"name":"owner","type":"address","internalType":"address"},{"name":"_threshold","type":"uint256","internalType":"uint256"}],"outputs":[],"stateMutability":"nonpayable"},{"type":"function","name":"threshold","inputs":[],"outputs":[{"name":"","type":"uint256","internalType":"uint256"}],"stateMutability":"view"},{"type":"event","name":"AddedOwner","inputs":[{"name":"owner","type":"address","indexed":true,"internalType":"address"}],"anonymous":false},{"type":"event","name":"ChangedThreshold","inputs":[{"name":"threshold","type":"uint256","indexed":false,"internalType":"uint256"}],"anonymous":false},{"type":"event","name":"ExecutionFailure","inputs":[{"name":"txHash","type":"bytes32","indexed":true,"internalType":"bytes32"},{"name":"nonce","type":"uint256","indexed":false,"internalType":"uint256"}],"anonymous":false},{"type":"event","name":"ExecutionSuccess","inputs":[{"name":"txHash","type":"bytes32","indexed":true,"internalType":"bytes32"},{"name":"nonce","type":"uint256","indexed":false,"internalType":"uint256"}],"anonymous":false},{"type":"event","name":"RemovedOwner","inputs":[{"name":"owner","type":"address","indexed":true,"internalType":"address"}],"anonymous":false}],"bytecode":{"object":"0x60a060405234801562000010575f80fd5b50604051620012a1380380620012a1833981016040819052620000339162000343565b5f8251116200007b5760405162461bcd60e51b815260206004820152600f60248201526e536166653a206e6f206f776e65727360881b60448201526064015b60405180910390fd5b5f811180156200008c575081518111155b620000da5760405162461bcd60e51b815260206004820152601760248201527f536166653a20696e76616c6964207468726573686f6c64000000000000000000604482015260640162000072565b5f5b82518110156200027b575f838281518110620000fc57620000fc62000418565b602002602001015190505f6001600160a01b0316816001600160a01b0316141580156200013257506001600160a01b0381163014155b620001805760405162461bcd60e51b815260206004820152601360248201527f536166653a20696e76616c6964206f776e657200000000000000000000000000604482015260640162000072565b6001600160a01b0381165f9081526001602052604090205460ff1615620001ea5760405162461bcd60e51b815260206004820152601560248201527f536166653a206475706c6963617465206f776e65720000000000000000000000604482015260640162000072565b6001600160a01b0381165f818152600160208190526040808320805460ff191683179055825491820183558280527f290decd9548b62a8d60345a988386fc84ba6bc95484008f6362f93160ef3e56390910180546001600160a01b03191684179055517f9465fa0c962cc76958e6373a993326400c1c94f8be2fe3a952adfa7f60b2ea269190a250600101620000dc565b5060028190556040518181527f610f7ff2b304ae8903c3de74c60c6ab1f7d6226b3f52c5161905bb5ad4039c939060200160405180910390a1604080517f47e79534a245952e8b16893a336b85a3d9ea9fa8c573f3d803afb92a794692186020820152469181019190915230606082015260800160408051601f198184030181529190528051602090910120608052506200042c9050565b634e487b7160e01b5f52604160045260245ffd5b80516001600160a01b03811681146200033e575f80fd5b919050565b5f806040838503121562000355575f80fd5b82516001600160401b03808211156200036c575f80fd5b818501915085601f83011262000380575f80fd5b815160208282111562000397576200039762000313565b8160051b604051601f19603f83011681018181108682111715620003bf57620003bf62000313565b604052928352818301935084810182019289841115620003dd575f80fd5b948201945b838610156200040657620003f68662000327565b85529482019493820193620003e2565b97909101519698969750505050505050565b634e487b7160e01b5f52603260045260245ffd5b608051610e556200044c5f395f8181610133015261055c0152610e555ff3fe60806040526004361061009d575f3560e01c8063a0e67e2b11610062578063a0e67e2b14610199578063acb5d878146101ba578063affed0e0146101d9578063b9a70800146101ee578063bfd2b3a31461020d578063ed516d511461022c575f80fd5b8063025e7c27146100a85780632f54bf6e146100e45780633644e515146101225780633cc38f5c1461016357806342cde4e814610184575f80fd5b366100a457005b5f80fd5b3480156100b3575f80fd5b506100c76100c2366004610b45565b61024b565b6040516001600160a01b0390911681526020015b60405180910390f35b3480156100ef575f80fd5b506101126100fe366004610b77565b60016020525f908152604090205460ff1681565b60405190151581526020016100db565b34801561012d575f80fd5b506101557f000000000000000000000000000000000000000000000000000000000000000081565b6040519081526020016100db565b34801561016e575f80fd5b5061018261017d366004610b97565b610272565b005b34801561018f575f80fd5b5061015560025481565b3480156101a4575f80fd5b506101ad61045c565b6040516100db9190610bbf565b3480156101c5575f80fd5b506101556101d4366004610c50565b6104bb565b3480156101e4575f80fd5b5061015560035481565b3480156101f9575f80fd5b50610112610208366004610cb7565b6105ac565b348015610218575f80fd5b50610182610227366004610b97565b6106f3565b348015610237575f80fd5b50610182610246366004610d44565b610980565b5f8181548110610259575f80fd5b5f918252602090912001546001600160a01b0316905081565b3330146102bd5760405162461bcd60e51b8152602060048201526014602482015273536166653a2073656c662d63616c6c206f6e6c7960601b60448201526064015b60405180910390fd5b6001600160a01b038216158015906102ed57506001600160a01b0382165f9081526001602052604090205460ff16155b6103395760405162461bcd60e51b815260206004820152601f60248201527f536166653a20696e76616c6964206f72206578697374696e67206f776e65720060448201526064016102b4565b6001600160a01b0382165f818152600160208190526040808320805460ff191683179055825491820183558280527f290decd9548b62a8d60345a988386fc84ba6bc95484008f6362f93160ef3e56390910180546001600160a01b03191684179055517f9465fa0c962cc76958e6373a993326400c1c94f8be2fe3a952adfa7f60b2ea269190a26002548114610458575f811180156103d957505f548111155b61041f5760405162461bcd60e51b815260206004820152601760248201527614d859994e881a5b9d985b1a59081d1a1c995cda1bdb19604a1b60448201526064016102b4565b60028190556040518181527f610f7ff2b304ae8903c3de74c60c6ab1f7d6226b3f52c5161905bb5ad4039c939060200160405180910390a15b5050565b60605f8054806020026020016040519081016040528092919081815260200182805480156104b157602002820191905f5260205f20905b81546001600160a01b03168152600190910190602001808311610493575b5050505050905090565b5f807f5553e4367bafa92a78ae01cd18badacf31df5f9d2b60b8a635fda8a3d2e5afb8888888886040516104f0929190610d8c565b60405190819003812061053894939291899089906020019586526001600160a01b0394909416602086015260408501929092526060840152608083015260a082015260c00190565b60408051808303601f19018152828252805160209182012061190160f01b828501527f00000000000000000000000000000000000000000000000000000000000000006022850152604280850191909152825180850390910181526062909301909152815191012098975050505050505050565b5f806105be89898989896003546104bb565b90506105cb818585610980565b60038054905f6105da83610daf565b9190505550846001036105f757865f8088838d5af4925050610657565b886001600160a01b0316888888604051610612929190610d8c565b5f6040518083038185875af1925050503d805f811461064c576040519150601f19603f3d011682016040523d82523d5f602084013e610651565b606091505b50909250505b81156106a457807f442e715f626346e8c54381002da614f62bee8d27386535b2521ec8540898556e600160035461068e9190610dc7565b60405190815260200160405180910390a26106e7565b807f23428b18acfb3ea64b08dc0c1d296ea9c09702c09083ca5272e64d115b687d2360016003546106d59190610dc7565b60405190815260200160405180910390a25b50979650505050505050565b3330146107395760405162461bcd60e51b8152602060048201526014602482015273536166653a2073656c662d63616c6c206f6e6c7960601b60448201526064016102b4565b6001600160a01b0382165f9081526001602052604090205460ff166107925760405162461bcd60e51b815260206004820152600f60248201526e29b0b3329d103737ba1037bbb732b960891b60448201526064016102b4565b5f5481906107a290600190610dc7565b10156107f05760405162461bcd60e51b815260206004820152601860248201527f536166653a207468726573686f6c6420746f6f2068696768000000000000000060448201526064016102b4565b6001600160a01b0382165f908152600160205260408120805460ff191690555b5f548110156108fa57826001600160a01b03165f828154811061083557610835610de0565b5f918252602090912001546001600160a01b0316036108f2575f805461085d90600190610dc7565b8154811061086d5761086d610de0565b5f91825260208220015481546001600160a01b0390911691908390811061089657610896610de0565b5f918252602082200180546001600160a01b0319166001600160a01b0393909316929092179091558054806108cd576108cd610df4565b5f8281526020902081015f1990810180546001600160a01b03191690550190556108fa565b600101610810565b506040516001600160a01b038316907ff8d49fc529812e9a7c5c50e69c20f0dccc0db8fa95c98bc58cc9a4f1c1299eaf905f90a26002548114610458575f811161041f5760405162461bcd60e51b815260206004820152601760248201527614d859994e881a5b9d985b1a59081d1a1c995cda1bdb19604a1b60448201526064016102b4565b60025461098e816041610e08565b8210156109dd5760405162461bcd60e51b815260206004820152601a60248201527f536166653a207369676e61747572657320746f6f2073686f727400000000000060448201526064016102b4565b5f805b82811015610ac2575f6109f587878785610aca565b9050826001600160a01b0316816001600160a01b031611610a585760405162461bcd60e51b815260206004820152601b60248201527f536166653a207369676e617475726573206e6f7420736f72746564000000000060448201526064016102b4565b6001600160a01b0381165f9081526001602052604090205460ff16610ab85760405162461bcd60e51b815260206004820152601660248201527529b0b3329d1039b4b3b732b9103737ba1037bbb732b960511b60448201526064016102b4565b91506001016109e0565b505050505050565b604080515f808252602080830180855288905260418502870180850135831a9484018590528035606085018190529101356080840181905291939290919060019060a0016020604051602081039080840390855afa158015610b2e573d5f803e3d5ffd5b5050604051601f1901519998505050505050505050565b5f60208284031215610b55575f80fd5b5035919050565b80356001600160a01b0381168114610b72575f80fd5b919050565b5f60208284031215610b87575f80fd5b610b9082610b5c565b9392505050565b5f8060408385031215610ba8575f80fd5b610bb183610b5c565b946020939093013593505050565b602080825282518282018190525f9190848201906040850190845b81811015610bff5783516001600160a01b031683529284019291840191600101610bda565b50909695505050505050565b5f8083601f840112610c1b575f80fd5b50813567ffffffffffffffff811115610c32575f80fd5b602083019150836020828501011115610c49575f80fd5b9250929050565b5f805f805f8060a08789031215610c65575f80fd5b610c6e87610b5c565b955060208701359450604087013567ffffffffffffffff811115610c90575f80fd5b610c9c89828a01610c0b565b979a9699509760608101359660809091013595509350505050565b5f805f805f805f60a0888a031215610ccd575f80fd5b610cd688610b5c565b965060208801359550604088013567ffffffffffffffff80821115610cf9575f80fd5b610d058b838c01610c0b565b909750955060608a0135945060808a0135915080821115610d24575f80fd5b50610d318a828b01610c0b565b989b979a50959850939692959293505050565b5f805f60408486031215610d56575f80fd5b83359250602084013567ffffffffffffffff811115610d73575f80fd5b610d7f86828701610c0b565b9497909650939450505050565b818382375f9101908152919050565b634e487b7160e01b5f52601160045260245ffd5b5f60018201610dc057610dc0610d9b565b5060010190565b81810381811115610dda57610dda610d9b565b92915050565b634e487b7160e01b5f52603260045260245ffd5b634e487b7160e01b5f52603160045260245ffd5b8082028115828204841417610dda57610dda610d9b56fea2646970667358221220d47ff8950f7c047900c5e1554c931623ddebaf8e8974fc20ac15dccb442b998064736f6c63430008180033","linkReferences":{}},"methodIdentifiers":{"DOMAIN_SEPARATOR()":"3644e515","addOwner(address,uint256)":"3cc38f5c","checkSignatures(bytes32,bytes)":"ed516d51","execTransaction(address,uint256,bytes,uint256,bytes)":"b9a70800","getOwners()":"a0e67e2b","getTransactionHash(address,uint256,bytes,uint256,uint256)":"acb5d878","isOwner(address)":"2f54bf6e","nonce()":"affed0e0","owners(uint256)":"025e7c27","removeOwner(address,uint256)":"bfd2b3a3","threshold()":"42cde4e8"},"storageLayout":{"storage":[{"astId":5,"contract":"contracts/SentrixSafe.sol:SentrixSafe","label":"owners","offset":0,"slot":"0","type":"t_array(t_address)dyn_storage"},{"astId":9,"contract":"contracts/SentrixSafe.sol:SentrixSafe","label":"isOwner","offset":0,"slot":"1","type":"t_mapping(t_address,t_bool)"},{"astId":11,"contract":"contracts/SentrixSafe.sol:SentrixSafe","label":"threshold","offset":0,"slot":"2","type":"t_uint256"},{"astId":13,"contract":"contracts/SentrixSafe.sol:SentrixSafe","label":"nonce","offset":0,"slot":"3","type":"t_uint256"}],"types":{"t_address":{"encoding":"inplace","label":"address","numberOfBytes":"20"},"t_array(t_address)dyn_storage":{"encoding":"dynamic_array","label":"address[]","numberOfBytes":"32","base":"t_address"},"t_bool":{"encoding":"inplace","label":"bool","numberOfBytes":"1"},"t_mapping(t_address,t_bool)":{"encoding":"mapping","key":"t_address","label":"mapping(address => bool)","numberOfBytes":"32","value":"t_bool"},"t_uint256":{"encoding":"inplace","label":"uint256","numberOfBytes":"32"}}},"id":0}