{"abi":[{"type":"function","name":"deployToken","inputs":[{"name":"name","type":"string","internalType":"string"},{"name":"symbol","type":"string","internalType":"string"},{"name":"initialSupply","type":"uint256","internalType":"uint256"}],"outputs":[{"name":"token","type":"address","internalType":"address"}],"stateMutability":"nonpayable"},{"type":"function","name":"deployedTokens","inputs":[{"name":"","type":"address","internalType":"address"},{"name":"","type":"uint256","internalType":"uint256"}],"outputs":[{"name":"","type":"address","internalType":"address"}],"stateMutability":"view"},{"type":"function","name":"tokenCount","inputs":[{"name":"owner","type":"address","internalType":"address"}],"outputs":[{"name":"","type":"uint256","internalType":"uint256"}],"stateMutability":"view"},{"type":"function","name":"tokensOf","inputs":[{"name":"owner","type":"address","internalType":"address"}],"outputs":[{"name":"","type":"address[]","internalType":"address[]"}],"stateMutability":"view"},{"type":"event","name":"TokenDeployed","inputs":[{"name":"token","type":"address","indexed":true,"internalType":"address"},{"name":"owner","type":"address","indexed":true,"internalType":"address"},{"name":"name","type":"string","indexed":false,"internalType":"string"},{"name":"symbol","type":"string","indexed":false,"internalType":"string"},{"name":"initialSupply","type":"uint256","indexed":false,"internalType":"uint256"}],"anonymous":false}],"bytecode":{"object":"0x608060405234801561000f575f80fd5b50610e548061001d5f395ff3fe608060405234801561000f575f80fd5b506004361061004a575f3560e01c80633a93babb1461004e57806356225a091461007e5780635a3f2672146100b45780637785cec6146100d4575b5f80fd5b61006161005c3660046102a6565b6100e7565b6040516001600160a01b0390911681526020015b60405180910390f35b6100a661008c36600461032f565b6001600160a01b03165f9081526020819052604090205490565b604051908152602001610075565b6100c76100c236600461032f565b6101b0565b604051610075919061034f565b6100616100e236600461039b565b610221565b5f808686868686336040516100fb90610254565b61010a969594939291906103eb565b604051809103905ff080158015610123573d5f803e3d5ffd5b50335f818152602081815260408083208054600181018255908452919092200180546001600160a01b0319166001600160a01b038516908117909155905192945084935090917fafab02be1fad1d0d43ad198ee814f1c60ef1d1143fea62cb87cc7a65b71af1229061019e908b908b908b908b908b90610435565b60405180910390a35095945050505050565b6001600160a01b0381165f908152602081815260409182902080548351818402810184019094528084526060939283018282801561021557602002820191905f5260205f20905b81546001600160a01b031681526001909101906020018083116101f7575b50505050509050919050565b5f602052815f5260405f208181548110610239575f80fd5b5f918252602090912001546001600160a01b03169150829050565b6109b08061046f83390190565b5f8083601f840112610271575f80fd5b50813567ffffffffffffffff811115610288575f80fd5b60208301915083602082850101111561029f575f80fd5b9250929050565b5f805f805f606086880312156102ba575f80fd5b853567ffffffffffffffff808211156102d1575f80fd5b6102dd89838a01610261565b909750955060208801359150808211156102f5575f80fd5b5061030288828901610261565b96999598509660400135949350505050565b80356001600160a01b038116811461032a575f80fd5b919050565b5f6020828403121561033f575f80fd5b61034882610314565b9392505050565b602080825282518282018190525f9190848201906040850190845b8181101561038f5783516001600160a01b03168352928401929184019160010161036a565b50909695505050505050565b5f80604083850312156103ac575f80fd5b6103b583610314565b946020939093013593505050565b81835281816020850137505f828201602090810191909152601f909101601f19169091010190565b608081525f6103fe60808301888a6103c3565b82810360208401526104118187896103c3565b604084019590955250506001600160a01b0391909116606090910152949350505050565b606081525f6104486060830187896103c3565b828103602084015261045b8186886103c3565b915050826040830152969550505050505056fe608060405234801562000010575f80fd5b50604051620009b0380380620009b083398101604081905262000033916200016c565b5f62000040858262000285565b5060016200004f848262000285565b5060028290556001600160a01b0381165f818152600360209081526040808320869055518581527fddf252ad1be2c89b69c2b068fc378daa952ba7f163c4a11628f55a4df523b3ef910160405180910390a35050505062000351565b634e487b7160e01b5f52604160045260245ffd5b5f82601f830112620000cf575f80fd5b81516001600160401b0380821115620000ec57620000ec620000ab565b604051601f8301601f19908116603f01168101908282118183101715620001175762000117620000ab565b816040528381526020925086602085880101111562000134575f80fd5b5f91505b8382101562000157578582018301518183018401529082019062000138565b5f602085830101528094505050505092915050565b5f805f806080858703121562000180575f80fd5b84516001600160401b038082111562000197575f80fd5b620001a588838901620000bf565b95506020870151915080821115620001bb575f80fd5b50620001ca87828801620000bf565b60408701516060880151919550935090506001600160a01b0381168114620001f0575f80fd5b939692955090935050565b600181811c908216806200021057607f821691505b6020821081036200022f57634e487b7160e01b5f52602260045260245ffd5b50919050565b601f8211156200028057805f5260205f20601f840160051c810160208510156200025c5750805b601f840160051c820191505b818110156200027d575f815560010162000268565b50505b505050565b81516001600160401b03811115620002a157620002a1620000ab565b620002b981620002b28454620001fb565b8462000235565b602080601f831160018114620002ef575f8415620002d75750858301515b5f19600386901b1c1916600185901b17855562000349565b5f85815260208120601f198616915b828110156200031f57888601518255948401946001909101908401620002fe565b50858210156200033d57878501515f19600388901b60f8161c191681555b505060018460011b0185555b505050505050565b610651806200035f5f395ff3fe608060405234801561000f575f80fd5b5060043610610090575f3560e01c8063313ce56711610063578063313ce567146100ff57806370a082311461011957806395d89b4114610138578063a9059cbb14610140578063dd62ed3e14610153575f80fd5b806306fdde0314610094578063095ea7b3146100b257806318160ddd146100d557806323b872dd146100ec575b5f80fd5b61009c61017d565b6040516100a99190610497565b60405180910390f35b6100c56100c03660046104fe565b610208565b60405190151581526020016100a9565b6100de60025481565b6040519081526020016100a9565b6100c56100fa366004610526565b610274565b610107601281565b60405160ff90911681526020016100a9565b6100de61012736600461055f565b60036020525f908152604090205481565b61009c610354565b6100c561014e3660046104fe565b610361565b6100de610161366004610578565b600460209081525f928352604080842090915290825290205481565b5f8054610189906105a9565b80601f01602080910402602001604051908101604052809291908181526020018280546101b5906105a9565b80156102005780601f106101d757610100808354040283529160200191610200565b820191905f5260205f20905b8154815290600101906020018083116101e357829003601f168201915b505050505081565b335f8181526004602090815260408083206001600160a01b038716808552925280832085905551919290917f8c5be1e5ebec7d5bd14f71427d1e84f3dd0314c0f7b2291e5b200ac8c7c3b925906102629086815260200190565b60405180910390a35060015b92915050565b5f6001600160a01b0384163314610341576001600160a01b0384165f9081526004602090815260408083203384529091529020545f19811461033f57828110156103115760405162461bcd60e51b8152602060048201526024808201527f466163746f7279546f6b656e3a20696e73756666696369656e7420616c6c6f77604482015263616e636560e01b60648201526084015b60405180910390fd5b61031b83826105f5565b6001600160a01b0386165f9081526004602090815260408083203384529091529020555b505b61034c848484610374565b949350505050565b60018054610189906105a9565b5f61036d338484610374565b9392505050565b6001600160a01b0383165f908152600360205260408120548211156103e65760405162461bcd60e51b815260206004820152602260248201527f466163746f7279546f6b656e3a20696e73756666696369656e742062616c616e604482015261636560f01b6064820152608401610308565b6001600160a01b0384165f908152600360205260408120805484929061040d9084906105f5565b90915550506001600160a01b0383165f9081526003602052604081208054849290610439908490610608565b92505081905550826001600160a01b0316846001600160a01b03167fddf252ad1be2c89b69c2b068fc378daa952ba7f163c4a11628f55a4df523b3ef8460405161048591815260200190565b60405180910390a35060019392505050565b5f602080835283518060208501525f5b818110156104c3578581018301518582016040015282016104a7565b505f604082860101526040601f19601f8301168501019250505092915050565b80356001600160a01b03811681146104f9575f80fd5b919050565b5f806040838503121561050f575f80fd5b610518836104e3565b946020939093013593505050565b5f805f60608486031215610538575f80fd5b610541846104e3565b925061054f602085016104e3565b9150604084013590509250925092565b5f6020828403121561056f575f80fd5b61036d826104e3565b5f8060408385031215610589575f80fd5b610592836104e3565b91506105a0602084016104e3565b90509250929050565b600181811c908216806105bd57607f821691505b6020821081036105db57634e487b7160e01b5f52602260045260245ffd5b50919050565b634e487b7160e01b5f52601160045260245ffd5b8181038181111561026e5761026e6105e1565b8082018082111561026e5761026e6105e156fea2646970667358221220fd28826e2f0835e63436764caa00ac6b1785b4ddf423bc78431a8c4d60e1587b64736f6c63430008180033a26469706673582212203a3a6d9b978e452c338052bfa777d8c3718602bf941f785b868d8b185e344aff64736f6c63430008180033","linkReferences":{}},"methodIdentifiers":{"deployToken(string,string,uint256)":"3a93babb","deployedTokens(address,uint256)":"7785cec6","tokenCount(address)":"56225a09","tokensOf(address)":"5a3f2672"},"storageLayout":{"storage":[{"astId":19,"contract":"contracts/TokenFactory.sol:TokenFactory","label":"deployedTokens","offset":0,"slot":"0","type":"t_mapping(t_address,t_array(t_address)dyn_storage)"}],"types":{"t_address":{"encoding":"inplace","label":"address","numberOfBytes":"20"},"t_array(t_address)dyn_storage":{"encoding":"dynamic_array","label":"address[]","numberOfBytes":"32","base":"t_address"},"t_mapping(t_address,t_array(t_address)dyn_storage)":{"encoding":"mapping","key":"t_address","label":"mapping(address => address[])","numberOfBytes":"32","value":"t_array(t_address)dyn_storage"}}},"id":0}